:100000000C9462000C948A000C948A000C948A0070
:100010000C948A000C948A000C948A000C948A0038
:100020000C948A000C948A000C948A000C948A0028
:100030000C948A000C948A000C948A000C948A0018
:100040000C94D0040C948A000C949E040C947804B4
:100050000C948A000C948A000C948A000C948A00F8
:100060000C948A000C948A000000000024002700F1
:100070002A0000000000250028002B0000000000DE
:1000800023002600290004040404040404040202DA
:100090000202020203030303030301020408102007
:1000A0004080010204081020010204081020000012
:1000B0000008000201000003040700000000000027
:1000C00000001A0511241FBECFEFD8E0DEBFCDBF60
:1000D00011E0A0E0B1E0E8EBF4E102C005900D9280
:1000E000A237B107D9F722E0A2E7B1E001C01D9223
:1000F000A73EB207E1F710E0C2E6D0E004C02197C6
:10010000FE010E944808C136D107C9F70E94650563
:100110000C945A0A0C940000CF92DF92EF92FF9257
:100120000F931F93CF93DF936C017A018B01C0E093
:10013000D0E0CE15DF0589F0D8016D918D01D60193
:10014000ED91FC910190F081E02DC6010995892B7C
:1001500011F47E0102C02196ECCFC701DF91CF914F
:100160001F910F91FF90EF90DF90CF900895089529
:1001700080E090E00895FC01538D448D252F30E000
:10018000842F90E0821B930B541710F0CF960895A4
:1001900001970895FC01918D828D981761F0828DF1
:1001A000DF01A80FB11D5D968C91928D9F5F9F73AB
:1001B000928F90E008958FEF9FEF0895FC01918D4D
:1001C000828D981731F0828DE80FF11D858D90E0BA
:1001D00008958FEF9FEF0895FC01918D228D892F57
:1001E00090E0805C9F4F821B91098F73992708953F
:1001F0008CE991E00E94EC0021E0892B09F420E0D9
:10020000822F0895FC01848DDF01A80FB11DA35A30
:10021000BF4F2C91848D90E001968F739927848F26
:10022000A689B7892C93A089B1898C9180648C931D
:10023000938D848D981306C00288F389E02D808108
:100240008F7D80830895EF92FF920F931F93CF933A
:10025000DF93EC0181E0888F9B8D8C8D981305C016
:10026000E889F989808185FD24C0F62E0B8D10E088
:100270000F5F1F4F0F731127E02E8C8DE8120CC0FB
:100280000FB607FCFACFE889F989808185FFF5CFA1
:10029000CE010E940201F1CF8B8DFE01E80FF11D0E
:1002A000E35AFF4FF0820B8FEA89FB8980818062DD
:1002B00007C0EE89FF896083E889F98980818064BD
:1002C000808381E090E0DF91CF911F910F91FF90AB
:1002D000EF900895CF93DF93EC01888D8823C9F0C8
:1002E000EA89FB89808185FD05C0A889B9898C913F
:1002F00086FD0FC00FB607FCF5CF808185FFF2CFDA
:10030000A889B9898C9185FFEDCFCE010E940201A9
:10031000E7CFDF91CF91089580E090E0892B29F01D
:100320000E94F80081110C9400000895833081F040
:1003300028F4813099F08230A1F008958730A9F037
:100340008830B9F08430D1F4809180008F7D03C073
:10035000809180008F7780938000089584B58F7797
:1003600002C084B58F7D84BD08958091B0008F77E1
:1003700003C08091B0008F7D8093B0000895CF932B
:10038000DF93282F30E0F901E255FF4F8491F90106
:10039000E656FF4FD491F901EA57FF4FC491CC23A1
:1003A00091F081110E949601EC2FF0E0EE0FFF1FFB
:1003B000E458FF4FA591B491EC91ED2381E090E0DA
:1003C00021F480E002C080E090E0DF91CF910895B9
:1003D0001F93CF93DF93282F30E0F901E255FF4FB1
:1003E0008491F901E656FF4FD491F901EA57FF4F86
:1003F000C491CC23C9F0162F81110E949601EC2FD5
:10040000F0E0EE0FFF1FEE58FF4FA591B4918FB7AC
:10041000F894111105C09C91ED2FE095E92302C0DD
:10042000EC91ED2BEC938FBFDF91CF911F9108954D
:10043000CF93DF9390E0FC01E656FF4F2491FC013F
:10044000EA57FF4F8491882361F190E0880F991F4C
:10045000FC01E859FF4FC591D491FC01EE58FF4FC4
:10046000A591B491611109C09FB7F8948881209536
:1004700082238883EC912E230BC0623061F49FB7F6
:10048000F8943881822F809583238883EC912E2BDA
:100490002C939FBF06C08FB7F894E8812E2B28833A
:1004A0008FBFDF91CF9108952FB7F89460917701B6
:1004B000709178018091790190917A012FBF089510
:1004C0000F931F93CF93DF93E9E3F2E0C0E0D0E016
:1004D0002081211122C0DC01CB0121E12C9F800170
:1004E0002D9F100D1124075C1D4F21E0F801208382
:1004F00081839283A383B4838FEF9FEF9683858359
:10050000528741870E945402F80163877487858768
:100510009687108A17868C2F06C021967196CA304E
:10052000D105B1F68FEFDF91CF911F910F91089513
:10053000CF93DF93009779F0FC0101900020E9F759
:100540003197AF01481B590BBC018CE991E00E9427
:100550008C00EC0102C0C0E0D0E042E050E068E175
:1005600071E08CE991E00E948C008C0F9D1FDF915F
:10057000CF9108950E945402613A7F408105910510
:10058000E8F080918D01811101C00895809194015E
:1005900090919501805E91408932910518F021E09B
:1005A00020938101899710F410928101809181013B
:1005B000882321F08BE191E00C949802089589E062
:1005C0000E94BF01892B21F480918D01811111C0FE
:1005D0001092800110927F0180917F0190918001A3
:1005E00049978CF081E0809382018EE291E00C9437
:1005F000980280917F0190918001019690938001F3
:1006000080937F01E9CF08950E94450A0F931F93BD
:10061000CF93DF93EC0188819981009729F02A819B
:100620003B812617370788F48B016F5F7F4F0E944D
:100630007B09009761F0998388831B830A832C814F
:100640003D81232B11F4FC01108281E001C080E088
:10065000DF91CF911F910F910895EF92FF920F9329
:100660001F93CF93DF936115710511F480E023C0D0
:10067000FB0101900020E9F73197E61BF70BDC0145
:1006800014960D911C9115973097A1F07B01EC0108
:100690000E0F1F1FB8010E940603882339F328811B
:1006A00039818C819D81B701820F931F0E94530A6B
:1006B0001D830C8381E0DF91CF911F910F91FF90FB
:1006C000EF900895CF92DF92EF92FF920F931F93D6
:1006D000CF93DF93CDB7DEB728970FB6F894DEBF80
:1006E0000FBECDBF8C01CB014AE09E012F5F3F4F73
:1006F0006901B9010E948507F60101900020E9F720
:100700003197EC19FD09D8011496ED90FC901597DE
:100710003097B9F0EE0EFF1EB701C8010E94060324
:10072000882381F0F8012081318184819581B6018F
:10073000820F931F0E94530AD8011596FC92EE92E5
:10074000149781E028960FB6F894DEBF0FBECDBF98
:10075000DF91CF911F910F91FF90EF90DF90CF909D
:100760000895CF93DF9300D000D000D0CDB7DEB78F
:100770001A8219821C821B821E821D8267E070E031
:10078000CE0101960E94060329813A8181110DC094
:100790002115310519F0C9010E94E3081A82198256
:1007A0001E821D821C821B8209C087E090E09E830E
:1007B0008D836CE371E0C9010E94530A609192013C
:1007C00070E0CE0101960E94620364E471E0CE0104
:1007D00001960E942D0367E471E0CE0101960E940C
:1007E0002D0388E00E94BF01BC01CE0101960E944A
:1007F000620364E471E0CE0101960E942D036DE472
:1008000071E0CE0101960E942D0389E00E94BF0194
:10081000BC01CE0101960E94620364E471E0CE0146
:1008200001960E942D0362E571E0CE0101960E94BF
:100830002D036091820170E0CE0101960E94620357
:1008400064E471E0CE0101960E942D0369E571E038
:10085000CE0101960E942D03609194017091950143
:10086000CE0101960E94620364E471E0CE0101961C
:100870000E942D0361E671E0CE0101960E942D03D6
:100880006091810170E0CE0101960E94620364E4F0
:1008900071E0CE0101960E942D0368E671E0CE0161
:1008A00001960E942D0360917F0170918001CE011D
:1008B00001960E9462034D815E8169817A818CE993
:1008C00091E00E948C0042E050E068E171E08CE928
:1008D00091E00E948C0089819A810E94E30826960B
:1008E0000FB6F894DEBF0FBECDBFDF91CF91089554
:1008F0001F920F920FB60F9211242F933F934F9395
:100900005F936F937F938F939F93AF93BF93EF9377
:10091000FF938CE991E00E940201FF91EF91BF915A
:10092000AF919F918F917F916F915F914F913F9187
:100930002F910F900FBE0F901F9018951F920F923E
:100940000FB60F9211242F938F939F93EF93FF93E2
:10095000E091AC01F091AD018081E091B201F091A4
:10096000B30182FD12C090818091B5018F5F8F73BA
:100970002091B601821751F0E091B501F0E0E45604
:10098000FE4F958F8093B50101C08081FF91EF915B
:100990009F918F912F910F900FBE0F901F901895E0
:1009A0001F920F920FB60F9211242F933F938F93A4
:1009B0009F93AF93BF938091770190917801A0911D
:1009C0007901B0917A013091760123E0230F2D3720
:1009D00020F40196A11DB11D05C026E8230F029643
:1009E000A11DB11D2093760180937701909378012A
:1009F000A0937901B0937A01809172019091730173
:100A0000A0917401B09175010196A11DB11D809353
:100A1000720190937301A0937401B0937501BF911B
:100A2000AF919F918F913F912F910F900FBE0F909B
:100A30001F90189510929F0110929E0188EE93E0EE
:100A4000A0E0B0E08093A0019093A101A093A20147
:100A5000B093A3018AE091E090939D0180939C0163
:100A600085EC90E09093A9018093A80184EC90E03C
:100A70009093AB018093AA0180EC90E09093AD013C
:100A80008093AC0181EC90E09093AF018093AE0134
:100A900082EC90E09093B1018093B00186EC90E0FD
:100AA0009093B3018093B2011092B5011092B601F8
:100AB0001092B7011092B801E9E3F2E0108271964A
:100AC00082E0E33EF807D1F70895789484B5826018
:100AD00084BD84B5816084BD85B5826085BD85B5E2
:100AE000816085BD80916E00816080936E00109260
:100AF00081008091810082608093810080918100DB
:100B0000816080938100809180008160809380006B
:100B10008091B10084608093B1008091B0008160C9
:100B20008093B00080917A00846080937A008091F5
:100B30007A00826080937A0080917A00816080934D
:100B40007A0080917A00806880937A001092C100C8
:100B5000E091AC01F091AD0182E08083E091A801C9
:100B6000F091A9011082E091AA01F091AB018FEC04
:100B700080831092B401E091B001F091B10186E060
:100B80008083E091AE01F091AF018081806180832C
:100B9000E091AE01F091AF01808188608083E091A7
:100BA000AE01F091AF01808180688083E091AE0159
:100BB000F091AF0180818F7D808360E089E00E94A9
:100BC000180262E088E00E94180261E087E00E945B
:100BD000180261E086E00E9418026091890186E0B7
:100BE0000E94E80160918D0181E0682787E00E9402
:100BF000E80141EB53E064EF71E080E090E00E9497
:100C000060024FED52E068EC70E080E090E00E94FE
:100C100060024AEB52E068EE73E080E090E00E94F0
:100C200060020E94540201E011E090E4D92E21E11B
:100C3000422E22E0522E612C712C0E9454024B0154
:100C40005C01C9E3D2E081E4E82E82E0F82E28813D
:100C50002223D1F14B855C856D857E85D501C4014C
:100C6000841B950BA60BB70B49815A816B817C8144
:100C700084179507A607B707E8F0213019F022304E
:100C800029F00FC0E985FA8509950BC061E0F701ED
:100C90008081811160E0F7016083319780810E943B
:100CA000E8018B869C86AD86BE868F8598890196E5
:100CB000988B8F878D819E8197FD06C02F853889FF
:100CC000281739070CF018826196F1E1EF0EF11C3C
:100CD00022E0C33ED20709F0BACF0E9454026093CB
:100CE00098017093990180939A0190939B01D092FF
:100CF0007C0080917A00806480937A0080917A00F1
:100D000086FDFCCFA091780080917900B0E0B82BEF
:100D1000B0939701A093960125EF31E00E9441081E
:100D2000A30192010E94BA07309395012093940188
:100D300089E00E94BF01C1E0892B09F4C0E0C093A3
:100D400093010E9454024B015C0188E00E94BF01A4
:100D5000892B39F580917B0190917C01A0917D01D7
:100D6000B0917E01A5019401281B390B4A0B5B0B46
:100D7000DA01C901853F9140A105B10590F080924B
:100D80007B0190927C01A0927D01B0927E0188E06F
:100D90000E94BF01892B29F48091920180278093C2
:100DA00092019091910180919201992319F0811102
:100DB0001093900120919001222399F0882359F0FB
:100DC00020918E0130918F012F5F3F4F30938F0123
:100DD00020938E0106C01092900110928F01109204
:100DE0008E0120918E0130918F01213D374044F0DA
:100DF00010938D011092900110928F0110928E012C
:100E0000992321F0811102C010938C0190918C01E3
:100E10009923A9F081110BC020918A0130918B0197
:100E20002F5F3F4F30938B0120938A0108C01092AF
:100E30008C0110928B0110928A01109289012091ED
:100E40008A0130918B01213D374014F010938901C4
:100E5000882321F01092890110938D0180918801DF
:100E6000882339F0C11105C0109387010E94DF0269
:100E700010C08091980190919901A0919A01B09130
:100E80009B018093830190938401A0938501B0938B
:100E9000860180918201882321F0109292011092A4
:100EA0008D0180918101882321F01092920110928E
:100EB0008D0180918D01811112C010928D011092CF
:100EC0008C0110928B0110928A011092890110926C
:100ED0008201109281011092800110927F01609135
:100EE000890186E00E94E80160918D01602787E01A
:100EF0000E94E80180919201809391018091930179
:100F0000809388010E948C0198CEBB274A3031F42F
:100F1000992322F4BDE2909581959F4F0C949107FF
:100F2000BB27FB015527AA27880F991FAA1FA417C3
:100F300010F0A41B83955051B9F7A05DAA3308F0B7
:100F4000A95DA193009779F7B111B1931192CB01EB
:100F50000C94AA07DC01FC01672F71917723E1F75C
:100F6000329704C07C916D9370836291AE17BF0776
:100F7000C8F30895052E97FB1EF400940E94D10734
:100F800057FD07D00E94100807FC03D04EF40C94C4
:100F9000D10750954095309521953F4F4F4F5F4F6A
:100FA000089590958095709561957F4F8F4F9F4FD5
:100FB00008952F923F924F925F926F927F928F92FD
:100FC0009F92AF92BF92CF92DF92EF92FF920F93D8
:100FD0001F93CF93DF93CDB7DEB7CA1BDB0B0FB6E2
:100FE000F894DEBF0FBECDBF09942A88398848889F
:100FF0005F846E847D848C849B84AA84B984C88435
:10100000DF80EE80FD800C811B81AA81B981CE0F2B
:10101000D11D0FB6F894DEBF0FBECDBFED01089510
:10102000A1E21A2EAA1BBB1BFD010DC0AA1FBB1FEC
:10103000EE1FFF1FA217B307E407F50720F0A21B5E
:10104000B30BE40BF50B661F771F881F991F1A94CB
:1010500069F760957095809590959B01AC01BD01F5
:10106000CF010895A29FB001B39FC001A39F700D4F
:10107000811D1124911DB29F700D811D1124911DA0
:1010800008950E943208B7FF0895821B930B0895BC
:10109000EE0FFF1F0590F491E02D0994CF93DF939D
:1010A0008230910510F482E090E0E091E502F09149
:1010B000E60220E030E0C0E0D0E0309711F140815E
:1010C000518148175907C0F04817590761F48281C8
:1010D0009381209719F09B838A832BC09093E6021B
:1010E0008093E50226C02115310519F042175307F8
:1010F00018F49A01BE01DF01EF010280F381E02DB7
:10110000DCCF2115310509F1281B390B24303105BD
:1011100090F412968D919C9113976115710521F0B1
:10112000FB019383828304C09093E6028093E502DF
:10113000FD01329644C0FD01E20FF31F81939193AC
:10114000225031092D933C933AC02091E302309113
:10115000E402232B41F420910201309103013093EA
:10116000E4022093E3022091000130910101211556
:10117000310541F42DB73EB740910401509105016E
:10118000241B350BE091E302F091E402E217F30730
:10119000A0F42E1B3F0B2817390778F0AC014E5FE7
:1011A0005F4F2417350748F04E0F5F1F5093E4023E
:1011B0004093E3028193919302C0E0E0F0E0CF011D
:1011C000DF91CF9108950F931F93CF93DF930097F3
:1011D00009F48CC0FC013297138212820091E5025F
:1011E0001091E6020115110581F420813181820FF1
:1011F000931F2091E3023091E4022817390779F513
:10120000F093E402E093E30271C0D80140E050E0C3
:10121000AE17BF0750F412962D913C911397AD0174
:101220002115310509F1D901F3CF9D01DA0133838D
:10123000228360817181860F971F8217930769F45B
:10124000EC0128813981260F371F2E5F3F4F3183F4
:1012500020838A819B8193838283452B29F4F09399
:10126000E602E093E50242C01396FC93EE931297D8
:10127000ED01499159919E01240F351FE217F307A3
:1012800071F480819181840F951F029611969C9331
:101290008E938281938113969C938E931297E0E0B4
:1012A000F0E0D80112968D919C911397009719F058
:1012B000F8018C01F6CF8D919C9198012E5F3F4FE4
:1012C000820F931F2091E3023091E402281739071F
:1012D00069F4309729F41092E6021092E50202C0F8
:1012E000138212821093E4020093E302DF91CF9104
:1012F0001F910F910895A0E0B0E0E1E8F9E00C94AF
:10130000DD07EC01009721F4CB010E944E08B8C024
:10131000FC01E60FF71F9C0122503109E217F30789
:1013200008F4ACC0D9010D911C911197061717074D
:10133000B0F00530110508F49FC0C8010497861766
:10134000970708F499C002501109061B170B019367
:1013500011936D937C93CF010E94E3088DC05B01D4
:10136000A01AB10A4C01800E911EA091E502B09125
:10137000E60240E050E0E12CF12C109709F44AC05D
:10138000A815B905D1F56D907C901197630182E0A5
:10139000C80ED11CCA14DB0480F1A3014A195B09F1
:1013A0006A0182E0C80ED11C1296BC901297139667
:1013B000AC91B5E0CB16D10440F0B282A383518347
:1013C0004083D9016D937C930AC00E5F1F4FC30108
:1013D000800F911FF90191838083EB2DFA2FE11487
:1013E000F10431F0D7011396FC93EE93129744C0A9
:1013F000F093E602E093E5023FC08D919C91119736
:101400004817590708F4AC017D0112960D90BC9164
:10141000A02DB3CF8091E3029091E4028815990545
:10142000E1F446175707C8F480910001909101013B
:10143000009741F48DB79EB740910401509105018A
:10144000841B950BE817F907C8F4F093E402E093C6
:10145000E302F901718360830FC0CB010E944E0843
:101460007C01009759F0A801BE010E944A0ACE01F2
:101470000E94E308C70104C0CE0102C080E090E0F2
:10148000CDB7DEB7EEE00C94F90781E090E0F89478
:101490000C945A0AFB01DC0102C001900D924150EC
:1014A0005040D8F70895FB01DC0101900D92002017
:0814B000E1F70895F894FFCF65
:1014B8000000E70280000000000023018C00BB0050
:1014C8006A01EC00CA00DE000D0A00454D4552478E
:1014D800454E43592053485554444F574E00536185
:1014E80066652053687574646F776E005057525F55
:1014F800533A200020200042544E3A200054583AD3
:101508002000536166653A2000565F6F75743A2073
:1015180000456D65723A200054785F636E743A2016
:021528000000C1
:107E0000112484B714BE81FFF0D085E080938100F7
:107E100082E08093C00088E18093C10086E0809377
:107E2000C20080E18093C4008EE0C9D0259A86E02C
:107E300020E33CEF91E0309385002093840096BBD3
:107E4000B09BFECF1D9AA8958150A9F7CC24DD24C4
:107E500088248394B5E0AB2EA1E19A2EF3E0BF2EE7
:107E6000A2D0813461F49FD0082FAFD0023811F036
:107E7000013811F484E001C083E08DD089C08234E0
:107E800011F484E103C0853419F485E0A6D080C0E4
:107E9000853579F488D0E82EFF2485D0082F10E0AE
:107EA000102F00270E291F29000F111F8ED06801E7
:107EB0006FC0863521F484E090D080E0DECF843638
:107EC00009F040C070D06FD0082F6DD080E0C81688
:107ED00080E7D80618F4F601B7BEE895C0E0D1E017
:107EE00062D089930C17E1F7F0E0CF16F0E7DF06D8
:107EF00018F0F601B7BEE89568D007B600FCFDCFD4
:107F0000A601A0E0B1E02C9130E011968C91119780
:107F100090E0982F8827822B932B1296FA010C0160
:107F200087BEE89511244E5F5F4FF1E0A038BF0790
:107F300051F7F601A7BEE89507B600FCFDCF97BE46
:107F4000E89526C08437B1F42ED02DD0F82E2BD052
:107F50003CD0F601EF2C8F010F5F1F4F84911BD097
:107F6000EA94F801C1F70894C11CD11CFA94CF0C13
:107F7000D11C0EC0853739F428D08EE10CD085E9AC
:107F80000AD08FE07ACF813511F488E018D01DD067
:107F900080E101D065CF982F8091C00085FFFCCF94
:107FA0009093C60008958091C00087FFFCCF809118
:107FB000C00084FD01C0A8958091C6000895E0E648
:107FC000F0E098E1908380830895EDDF803219F02E
:107FD00088E0F5DFFFCF84E1DECF1F93182FE3DFCA
:107FE0001150E9F7F2DF1F91089580E0E8DFEE27F6
:047FF000FF270994CA
:027FFE00040479
:0400000300007E007B
:00000001FF