:100000000C9462000C948A000C948A000C948A0070
:100010000C948A000C948A000C948A000C948A0038
:100020000C948A000C948A000C948A000C948A0028
:100030000C948A000C948A000C948A000C948A0018
:100040000C94E4040C948A000C94B2040C948C0478
:100050000C948A000C948A000C948A000C948A00F8
:100060000C948A000C948A000000000024002700F1
:100070002A0000000000250028002B0000000000DE
:1000800023002600290004040404040404040202DA
:100090000202020203030303030301020408102007
:1000A0004080010204081020010204081020000012
:1000B0000008000201000003040700000000000027
:1000C00000002E0511241FBECFEFD8E0DEBFCDBF4C
:1000D00011E0A0E0B1E0ECEDF4E102C005900D927A
:1000E000AA37B107D9F722E0AAE7B1E001C01D9213
:1000F000AE3EB207E1F710E0C2E6D0E004C02197BF
:10010000FE010E945A08C136D107C9F70E9479053D
:100110000C946C0A0C940000CF92DF92EF92FF9245
:100120000F931F93CF93DF936C017A018B01C0E093
:10013000D0E0CE15DF0589F0D8016D918D01D60193
:10014000ED91FC910190F081E02DC6010995892B7C
:1001500011F47E0102C02196ECCFC701DF91CF914F
:100160001F910F91FF90EF90DF90CF900895089529
:1001700080E090E00895FC01538D448D252F30E000
:10018000842F90E0821B930B541710F0CF960895A4
:1001900001970895FC01918D828D981761F0828DF1
:1001A000DF01A80FB11D5D968C91928D9F5F9F73AB
:1001B000928F90E008958FEF9FEF0895FC01918D4D
:1001C000828D981731F0828DE80FF11D858D90E0BA
:1001D00008958FEF9FEF0895FC01918D228D892F57
:1001E00090E0805C9F4F821B91098F73992708953F
:1001F00083EA91E00E94EC0021E0892B09F420E0E1
:10020000822F0895FC01848DDF01A80FB11DA35A30
:10021000BF4F2C91848D90E001968F739927848F26
:10022000A689B7892C93A089B1898C9180648C931D
:10023000938D848D981306C00288F389E02D808108
:100240008F7D80830895EF92FF920F931F93CF933A
:10025000DF93EC0181E0888F9B8D8C8D981305C016
:10026000E889F989808185FD24C0F62E0B8D10E088
:100270000F5F1F4F0F731127E02E8C8DE8120CC0FB
:100280000FB607FCFACFE889F989808185FFF5CFA1
:10029000CE010E940201F1CF8B8DFE01E80FF11D0E
:1002A000E35AFF4FF0820B8FEA89FB8980818062DD
:1002B00007C0EE89FF896083E889F98980818064BD
:1002C000808381E090E0DF91CF911F910F91FF90AB
:1002D000EF900895CF93DF93EC01888D8823C9F0C8
:1002E000EA89FB89808185FD05C0A889B9898C913F
:1002F00086FD0FC00FB607FCF5CF808185FFF2CFDA
:10030000A889B9898C9185FFEDCFCE010E940201A9
:10031000E7CFDF91CF91089580E090E0892B29F01D
:100320000E94F80081110C9400000895833081F040
:1003300028F4813099F08230A1F008958730A9F037
:100340008830B9F08430D1F4809180008F7D03C073
:10035000809180008F7780938000089584B58F7797
:1003600002C084B58F7D84BD08958091B0008F77E1
:1003700003C08091B0008F7D8093B0000895CF932B
:10038000DF93282F30E0F901E255FF4F8491F90106
:10039000E656FF4FD491F901EA57FF4FC491CC23A1
:1003A00091F081110E949601EC2FF0E0EE0FFF1FFB
:1003B000E458FF4FA591B491EC91ED2381E090E0DA
:1003C00021F480E002C080E090E0DF91CF910895B9
:1003D0001F93CF93DF93282F30E0F901E255FF4FB1
:1003E0008491F901E656FF4FD491F901EA57FF4F86
:1003F000C491CC23C9F0162F81110E949601EC2FD5
:10040000F0E0EE0FFF1FEE58FF4FA591B4918FB7AC
:10041000F894111105C09C91ED2FE095E92302C0DD
:10042000EC91ED2BEC938FBFDF91CF911F9108954D
:10043000CF93DF9390E0FC01E656FF4F2491FC013F
:10044000EA57FF4F8491882361F190E0880F991F4C
:10045000FC01E859FF4FC591D491FC01EE58FF4FC4
:10046000A591B491611109C09FB7F8948881209536
:1004700082238883EC912E230BC0623061F49FB7F6
:10048000F8943881822F809583238883EC912E2BDA
:100490002C939FBF06C08FB7F894E8812E2B28833A
:1004A0008FBFDF91CF9108952FB7F89460917F01AE
:1004B0007091800180918101909182012FBF0895F8
:1004C0000F931F93CF93DF93E0E4F2E0C0E0D0E01E
:1004D0002081211122C0DC01CB0121E12C9F800170
:1004E0002D9F100D1124005C1D4F21E0F801208389
:1004F00081839283A383B4838FEF9FEF9683858359
:10050000528741870E945402F80163877487858768
:100510009687108A17868C2F06C021967196CA304E
:10052000D105B1F68FEFDF91CF911F910F91089513
:10053000CF93DF93009779F0FC0101900020E9F759
:100540003197AF01481B590BBC0183EA91E00E942F
:100550008C00EC0102C0C0E0D0E042E050E068E175
:1005600071E083EA91E00E948C008C0F9D1FDF9167
:10057000CF9108950E945402613A7F408105910510
:10058000F0F080919401811101C0089580919B0148
:1005900090919C01815D91408234910518F021E099
:1005A000209389018234910510F410928901809181
:1005B0008901882321F08BE191E00C949802089541
:1005C00089E00E94BF01892B21F48091940181115F
:1005D00011C010928801109287018091870190913B
:1005E000880149978CF081E080938A018EE291E046
:1005F0000C949802809187019091880101969093C4
:10060000880180938701E9CF08950E94570A0F93CC
:100610001F93CF93DF93EC0188819981009729F094
:100620002A813B812617370788F48B016F5F7F4F44
:100630000E948D09009761F0998388831B830A8348
:100640002C813D81232B11F4FC01108281E001C03B
:1006500080E0DF91CF911F910F910895EF92FF926B
:100660000F931F93CF93DF936115710511F480E011
:1006700023C0FB0101900020E9F73197E61BF70B3F
:10068000DC0114960D911C9115973097A1F07B0118
:10069000EC010E0F1F1FB8010E940703882339F3D6
:1006A000288139818C819D81B701820F931F0E941F
:1006B000650A1D830C8381E0DF91CF911F910F911B
:1006C000FF90EF900895CF92DF92EF92FF920F93F9
:1006D0001F93CF93DF93CDB7DEB728970FB6F8946B
:1006E000DEBF0FBECDBF8C01CB014AE09E012F5F64
:1006F0003F4F6901B9010E949707F6010190002060
:10070000E9F73197EC19FD09D8011496ED90FC90AA
:1007100015973097B9F0EE0EFF1EB701C8010E9481
:100720000703882381F0F80120813181848195813C
:10073000B601820F931F0E94650AD8011596FC929C
:10074000EE92149781E028960FB6F894DEBF0FBEA4
:10075000CDBFDF91CF911F910F91FF90EF90DF9070
:10076000CF900895CF93DF9300D000D000D0CDB7C5
:10077000DEB71A8219821C821B821E821D8267E0EC
:1007800070E0CE0101960E94070329813A81811110
:100790000DC02115310519F0C9010E94F5081A8212
:1007A00019821E821D821C821B8209C087E090E094
:1007B0009E838D836CE371E0C9010E94650A60919C
:1007C000990170E0CE0101960E94630364E471E038
:1007D000CE0101960E942E0367E471E0CE010196DE
:1007E0000E942E0388E00E94BF01BC01CE01019649
:1007F0000E94630364E471E0CE0101960E942E031F
:100800006DE471E0CE0101960E942E0389E00E9402
:10081000BF01BC01CE0101960E94630364E471E054
:10082000CE0101960E942E0362E571E0CE01019691
:100830000E942E0360918A0170E0CE0101960E9411
:10084000630364E471E0CE0101960E942E0369E522
:1008500071E0CE0101960E942E036091900170E03C
:10086000CE0101960E94630364E471E0CE0101961B
:100870000E942E0361E671E0CE0101960E942E03D4
:1008800060919B0170919C01CE0101960E946303CF
:1008900064E471E0CE0101960E942E0369E671E0E6
:1008A000CE0101960E942E036091890170E0CE0175
:1008B00001960E94630364E471E0CE0101960E94F8
:1008C0002E0360E771E0CE0101960E942E03609135
:1008D000870170918801CE0101960E9463034D81CA
:1008E0005E8169817A8183EA91E00E948C0042E016
:1008F00050E068E171E083EA91E00E948C00898118
:100900009A810E94F50826960FB6F894DEBF0FBEB6
:10091000CDBFDF91CF9108951F920F920FB60F9226
:1009200011242F933F934F935F936F937F938F93F4
:100930009F93AF93BF93EF93FF9383EA91E00E945D
:100940000201FF91EF91BF91AF919F918F917F91A4
:100950006F915F914F913F912F910F900FBE0F902C
:100960001F9018951F920F920FB60F9211242F937C
:100970008F939F93EF93FF93E091B301F091B401B4
:100980008081E091B901F091BA0182FD12C090819D
:100990008091BC018F5F8F732091BD01821751F050
:1009A000E091BC01F0E0ED55FE4F958F8093BC01C6
:1009B00001C08081FF91EF919F918F912F910F90B6
:1009C0000FBE0F901F9018951F920F920FB60F92A7
:1009D00011242F933F938F939F93AF93BF93809155
:1009E0007F0190918001A0918101B09182013091AD
:1009F0007E0123E0230F2D3720F40196A11DB11DA8
:100A000005C026E8230F0296A11DB11D20937E018B
:100A100080937F0190938001A0938101B093820124
:100A200080917A0190917B01A0917C01B0917D0130
:100A30000196A11DB11D80937A0190937B01A09333
:100A40007C01B0937D01BF91AF919F918F913F91B8
:100A50002F910F900FBE0F901F9018951092A60126
:100A60001092A50188EE93E0A0E0B0E08093A7018A
:100A70009093A801A093A901B093AA018AE091E004
:100A80009093A4018093A30185EC90E09093B00132
:100A90008093AF0184EC90E09093B2018093B10118
:100AA00080EC90E09093B4018093B30181EC90E0EE
:100AB0009093B6018093B50182EC90E09093B801D9
:100AC0008093B70186EC90E09093BA018093B901CE
:100AD0001092BC011092BD011092BE011092BF0194
:100AE000E0E4F2E01082719682E0EA3EF807D1F786
:100AF0000895789484B5826084BD84B5816084BD96
:100B000085B5826085BD85B5816085BD80916E00AB
:100B1000816080936E0010928100809181008260DC
:100B20008093810080918100816080938100809119
:100B300080008160809380008091B1008460809308
:100B4000B1008091B00081608093B00080917A0004
:100B5000846080937A0080917A00826080937A002A
:100B600080917A00816080937A0080917A00806819
:100B700080937A001092C10060E089E00E94180220
:100B800062E088E00E94180261E087E00E9418029B
:100B900061E086E00E941802E091B301F091B40197
:100BA00082E08083E091AF01F091B0011082E0918A
:100BB000B101F091B2018FEC80831092BB01E09102
:100BC000B701F091B80186E08083E091B501F09122
:100BD000B601808180618083E091B501F091B6011A
:100BE000808188608083E091B501F091B6018081B9
:100BF00080688083E091B501F091B60180818F7D9E
:100C000080836091900186E00E94E80160919401E8
:100C100081E0682787E00E94E80142EB53E064EF3F
:100C200071E080E090E00E94600240EE52E068ECEB
:100C300070E080E090E00E9460024AEB52E068EED3
:100C400073E080E090E00E9460020E94540201E0A4
:100C500011E090E4D92E27E0422E22E0522E612CA2
:100C6000712C0E9454024B015C01C0E4D2E088E484
:100C7000E82E82E0F82E28812223D1F14B855C8575
:100C80006D857E85D501C401841B950BA60BB70B22
:100C900049815A816B817C8184179507A607B70724
:100CA000E8F0213019F0223029F00FC0E985FA85EB
:100CB00009950BC061E0F7018081811160E0F701C7
:100CC0006083319780810E94E8018B869C86AD8687
:100CD000BE868F8598890196988B8F878D819E819E
:100CE00097FD06C02F853889281739070CF0188220
:100CF0006196F1E1EF0EF11C22E0CA3ED20709F045
:100D0000BACF0E94540260939F017093A001809318
:100D1000A1019093A201D0927C0080917A0080641E
:100D200080937A0080917A0086FDFCCFA0917800B4
:100D300080917900B0E0B82BB0939E01A0939D0103
:100D400025EF31E00E945308A30192010E94CC07D5
:100D500030939C0120939B0189E00E94BF01C1E078
:100D6000892B09F4C0E0C0939A010E9454024B0100
:100D70005C0188E00E94BF01892B39F580918301D5
:100D800090918401A0918501B0918601A501940103
:100D9000281B390B4A0B5B0BDA01C901853F9140D7
:100DA000A105B10590F08092830190928401A092F8
:100DB0008501B092860188E00E94BF01892B29F449
:100DC0008091990180278093990190919801809159
:100DD0009901992319F0811110939701209197019E
:100DE000222399F0882359F02091950130919601A2
:100DF0002F5F3F4F309396012093950106C01092CC
:100E000097011092960110929501209195013091D1
:100E10009601213D374044F01093940110929701C0
:100E20001092960110929501992321F0811102C030
:100E300010939301909193019923A9F081110BC014
:100E400020919101309192012F5F3F4F3093920199
:100E50002093910108C01092930110929201109278
:100E60009101109290012091910130919201213DC8
:100E7000374014F010939001882321F010929001D4
:100E80001093940180918F01882329F0C11103C030
:100E90000E94E00210C080919F019091A001A0915A
:100EA000A101B091A20180938B0190938C01A0933A
:100EB0008D01B0938E0180918A01882321F01092D8
:100EC00099011092940180918901882321F0109258
:100ED00099011092940180919401811112C0109295
:100EE000940110929301109292011092910110922C
:100EF000900110928A01109289011092880110923B
:100F000087016091900186E00E94E8016091940160
:100F1000602787E00E94E801809199018093980101
:100F200080919A0180938F010E948C019ACEBB27F9
:100F30004A3031F4992322F4BDE2909581959F4F78
:100F40000C94A307BB27FB015527AA27880F991FDD
:100F5000AA1FA41710F0A41B83955051B9F7A05DE8
:100F6000AA3308F0A95DA193009779F7B111B19365
:100F70001192CB010C94BC07DC01FC01672F71912D
:100F80007723E1F7329704C07C916D93708362916F
:100F9000AE17BF07C8F30895052E97FB1EF4009403
:100FA0000E94E30757FD07D00E94220807FC03D0E8
:100FB0004EF40C94E30750954095309521953F4FA2
:100FC0004F4F5F4F089590958095709561957F4F35
:100FD0008F4F9F4F08952F923F924F925F926F9243
:100FE0007F928F929F92AF92BF92CF92DF92EF92B9
:100FF000FF920F931F93CF93DF93CDB7DEB7CA1B3A
:10100000DB0B0FB6F894DEBF0FBECDBF09942A8864
:10101000398848885F846E847D848C849B84AA840C
:10102000B984C884DF80EE80FD800C811B81AA8199
:10103000B981CE0FD11D0FB6F894DEBF0FBECDBF64
:10104000ED010895A1E21A2EAA1BBB1BFD010DC0E4
:10105000AA1FBB1FEE1FFF1FA217B307E407F50768
:1010600020F0A21BB30BE40BF50B661F771F881F44
:10107000991F1A9469F760957095809590959B01DA
:10108000AC01BD01CF010895A29FB001B39FC00183
:10109000A39F700D811D1124911DB29F700D811DA4
:1010A0001124911D08950E944408B7FF0895821BE2
:1010B000930B0895EE0FFF1F0590F491E02D099416
:1010C000CF93DF938230910510F482E090E0E091BD
:1010D000EC02F091ED0220E030E0C0E0D0E030978B
:1010E00011F14081518148175907C0F0481759073D
:1010F00061F482819381209719F09B838A832BC0AE
:101100009093ED028093EC0226C02115310519F071
:101110004217530718F49A01BE01DF01EF01028064
:10112000F381E02DDCCF2115310509F1281B390BA6
:101130002430310590F412968D919C91139761158E
:10114000710521F0FB019383828304C09093ED022B
:101150008093EC02FD01329644C0FD01E20FF31FC3
:1011600081939193225031092D933C933AC0209161
:10117000EA023091EB02232B41F4209102013091DD
:1011800003013093EB022093EA0220910001309199
:1011900001012115310541F42DB73EB740910401FD
:1011A00050910501241B350BE091EA02F091EB020E
:1011B000E217F307A0F42E1B3F0B2817390778F02E
:1011C000AC014E5F5F4F2417350748F04E0F5F1F8D
:1011D0005093EB024093EA028193919302C0E0E0C6
:1011E000F0E0CF01DF91CF9108950F931F93CF933C
:1011F000DF93009709F48CC0FC01329713821282AE
:101200000091EC021091ED020115110581F420818D
:101210003181820F931F2091EA023091EB0228174F
:10122000390779F5F093EB02E093EA0271C0D80137
:1012300040E050E0AE17BF0750F412962D913C915C
:101240001397AD012115310509F1D901F3CF9D01A6
:10125000DA013383228360817181860F971F8217A1
:10126000930769F4EC0128813981260F371F2E5F1F
:101270003F4F318320838A819B8193838283452BD7
:1012800029F4F093ED02E093EC0242C01396FC9334
:10129000EE931297ED01499159919E01240F351F4C
:1012A000E217F30771F480819181840F951F0296F4
:1012B00011969C938E938281938113969C938E9327
:1012C0001297E0E0F0E0D80112968D919C9113976F
:1012D000009719F0F8018C01F6CF8D919C9198013F
:1012E0002E5F3F4F820F931F2091EA023091EB0255
:1012F0002817390769F4309729F41092ED021092FB
:10130000EC0202C0138212821093EB020093EA02F5
:10131000DF91CF911F910F910895A0E0B0E0E3E934
:10132000F9E00C94EF07EC01009721F4CB010E9447
:101330006008B8C0FC01E60FF71F9C01225031097C
:10134000E217F30708F4ACC0D9010D911C91119775
:1013500006171707B0F00530110508F49FC0C80143
:1013600004978617970708F499C002501109061BC5
:10137000170B019311936D937C93CF010E94F50895
:101380008DC05B01A01AB10A4C01800E911EA09184
:10139000EC02B091ED0240E050E0E12CF12C10970E
:1013A00009F44AC0A815B905D1F56D907C90119744
:1013B000630182E0C80ED11CCA14DB0480F1A301D2
:1013C0004A195B096A0182E0C80ED11C1296BC90D2
:1013D00012971396AC91B5E0CB16D10440F0B282CF
:1013E000A38351834083D9016D937C930AC00E5F20
:1013F0001F4FC301800F911FF90191838083EB2D53
:10140000FA2FE114F10431F0D7011396FC93EE9317
:10141000129744C0F093ED02E093EC023FC08D912F
:101420009C9111974817590708F4AC017D01129659
:101430000D90BC91A02DB3CF8091EA029091EB0268
:1014400088159905E1F446175707C8F48091000103
:1014500090910101009741F48DB79EB7409104012E
:1014600050910501841B950BE817F907C8F4F09318
:10147000EB02E093EA02F901718360830FC0CB01B4
:101480000E9460087C01009759F0A801BE010E94EB
:101490005C0ACE010E94F508C70104C0CE0102C05B
:1014A00080E090E0CDB7DEB7EEE00C940B0881E071
:1014B00090E0F8940C946C0AFB01DC0102C00190EE
:1014C0000D9241505040D8F70895FB01DC01019086
:0C14D0000D920020E1F70895F894FFCF82
:1014DC000000EE0280000000000023018C00BB0025
:1014EC006A01EC00CA00DE000D0A00454D4552476A
:1014FC00454E43592053485554444F574E00536161
:10150C0066652053687574646F776E005057525F30
:10151C00533A200020200042544E3A200054583AAE
:10152C002000536166653A2000535F7265713A2062
:10153C0000565F6F75743A2000456D65723A200055
:0A154C0054785F636E743A200000CB
:107E0000112484B714BE81FFF0D085E080938100F7
:107E100082E08093C00088E18093C10086E0809377
:107E2000C20080E18093C4008EE0C9D0259A86E02C
:107E300020E33CEF91E0309385002093840096BBD3
:107E4000B09BFECF1D9AA8958150A9F7CC24DD24C4
:107E500088248394B5E0AB2EA1E19A2EF3E0BF2EE7
:107E6000A2D0813461F49FD0082FAFD0023811F036
:107E7000013811F484E001C083E08DD089C08234E0
:107E800011F484E103C0853419F485E0A6D080C0E4
:107E9000853579F488D0E82EFF2485D0082F10E0AE
:107EA000102F00270E291F29000F111F8ED06801E7
:107EB0006FC0863521F484E090D080E0DECF843638
:107EC00009F040C070D06FD0082F6DD080E0C81688
:107ED00080E7D80618F4F601B7BEE895C0E0D1E017
:107EE00062D089930C17E1F7F0E0CF16F0E7DF06D8
:107EF00018F0F601B7BEE89568D007B600FCFDCFD4
:107F0000A601A0E0B1E02C9130E011968C91119780
:107F100090E0982F8827822B932B1296FA010C0160
:107F200087BEE89511244E5F5F4FF1E0A038BF0790
:107F300051F7F601A7BEE89507B600FCFDCF97BE46
:107F4000E89526C08437B1F42ED02DD0F82E2BD052
:107F50003CD0F601EF2C8F010F5F1F4F84911BD097
:107F6000EA94F801C1F70894C11CD11CFA94CF0C13
:107F7000D11C0EC0853739F428D08EE10CD085E9AC
:107F80000AD08FE07ACF813511F488E018D01DD067
:107F900080E101D065CF982F8091C00085FFFCCF94
:107FA0009093C60008958091C00087FFFCCF809118
:107FB000C00084FD01C0A8958091C6000895E0E648
:107FC000F0E098E1908380830895EDDF803219F02E
:107FD00088E0F5DFFFCF84E1DECF1F93182FE3DFCA
:107FE0001150E9F7F2DF1F91089580E0E8DFEE27F6
:047FF000FF270994CA
:027FFE00040479
:0400000300007E007B
:00000001FF