:100000000C9462000C948A000C948A000C948A0070
:100010000C948A000C948A000C948A000C948A0038
:100020000C948A000C948A000C948A000C948A0028
:100030000C948A000C948A000C948A000C948A0018
:100040000C94A1040C948A000C946F040C94490441
:100050000C948A000C948A000C948A000C948A00F8
:100060000C948A000C948A000000000024002700F1
:100070002A0000000000250028002B0000000000DE
:1000800023002600290004040404040404040202DA
:100090000202020203030303030301020408102007
:1000A0004080010204081020010204081020000012
:1000B0000008000201000003040700000000000027
:1000C0000000EB0411241FBECFEFD8E0DEBFCDBF90
:1000D00011E0A0E0B1E0ECE4F4E102C005900D9283
:1000E000A035B107D9F722E0A0E5B1E001C01D922B
:1000F000A53CB207E1F710E0C2E6D0E004C02197CA
:10010000FE010E941208C136D107C9F70E943605C8
:100110000C94240A0C940000CF92DF92EF92FF928D
:100120000F931F93CF93DF936C017A018B01C0E093
:10013000D0E0CE15DF0589F0D8016D918D01D60193
:10014000ED91FC910190F081E02DC6010995892B7C
:1001500011F47E0102C02196ECCFC701DF91CF914F
:100160001F910F91FF90EF90DF90CF900895089529
:1001700080E090E00895FC01538D448D252F30E000
:10018000842F90E0821B930B541710F0CF960895A4
:1001900001970895FC01918D828D981761F0828DF1
:1001A000DF01A80FB11D5D968C91928D9F5F9F73AB
:1001B000928F90E008958FEF9FEF0895FC01918D4D
:1001C000828D981731F0828DE80FF11D858D90E0BA
:1001D00008958FEF9FEF0895FC01918D228D892F57
:1001E00090E0805C9F4F821B91098F73992708953F
:1001F0008AE791E00E94EC0021E0892B09F420E0DD
:10020000822F0895FC01848DDF01A80FB11DA35A30
:10021000BF4F2C91848D90E001968F739927848F26
:10022000A689B7892C93A089B1898C9180648C931D
:10023000938D848D981306C00288F389E02D808108
:100240008F7D80830895EF92FF920F931F93CF933A
:10025000DF93EC0181E0888F9B8D8C8D981305C016
:10026000E889F989808185FD24C0F62E0B8D10E088
:100270000F5F1F4F0F731127E02E8C8DE8120CC0FB
:100280000FB607FCFACFE889F989808185FFF5CFA1
:10029000CE010E940201F1CF8B8DFE01E80FF11D0E
:1002A000E35AFF4FF0820B8FEA89FB8980818062DD
:1002B00007C0EE89FF896083E889F98980818064BD
:1002C000808381E090E0DF91CF911F910F91FF90AB
:1002D000EF900895CF93DF93EC01888D8823C9F0C8
:1002E000EA89FB89808185FD05C0A889B9898C913F
:1002F00086FD0FC00FB607FCF5CF808185FFF2CFDA
:10030000A889B9898C9185FFEDCFCE010E940201A9
:10031000E7CFDF91CF91089580E090E0892B29F01D
:100320000E94F80081110C9400000895833081F040
:1003300028F4813099F08230A1F008958730A9F037
:100340008830B9F08430D1F4809180008F7D03C073
:10035000809180008F7780938000089584B58F7797
:1003600002C084B58F7D84BD08958091B0008F77E1
:1003700003C08091B0008F7D8093B0000895CF932B
:10038000DF93282F30E0F901E255FF4F8491F90106
:10039000E656FF4FD491F901EA57FF4FC491CC23A1
:1003A00091F081110E949601EC2FF0E0EE0FFF1FFB
:1003B000E458FF4FA591B491EC91ED2381E090E0DA
:1003C00021F480E002C080E090E0DF91CF910895B9
:1003D00089E00E94BF01892B21F480916B0181117A
:1003E0000EC010925E0110925D0180915D019091AE
:1003F0005E01499774F081E08093600108958091D7
:100400005D0190915E01019690935E0180935D0184
:10041000ECCF08951F93CF93DF93282F30E0F9019D
:10042000E255FF4F8491F901E656FF4FD491F9014F
:10043000EA57FF4FC491CC23C9F0162F81110E94B7
:100440009601EC2FF0E0EE0FFF1FEE58FF4FA59145
:10045000B4918FB7F894111105C09C91ED2FE095E0
:10046000E92302C0EC91ED2BEC938FBFDF91CF918C
:100470001F910895CF93DF9390E0FC01E656FF4F64
:100480002491FC01EA57FF4F8491882361F190E0A9
:10049000880F991FFC01E859FF4FC591D491FC01C9
:1004A000EE58FF4FA591B491611109C09FB7F89420
:1004B0008881209582238883EC912E230BC06230A3
:1004C00061F49FB7F8943881822F809583238883C5
:1004D000EC912E2B2C939FBF06C08FB7F894E88128
:1004E0002E2B28838FBFDF91CF9108952FB7F894DB
:1004F000609155017091560180915701909158017A
:100500002FBF08950F931F93CF93DF93E7E1F2E09E
:10051000C0E0D0E02081211122C0DC01CB0121E12B
:100520002C9F80012D9F100D1124095E1D4F21E08D
:10053000F801208381839283A383B4838FEF9FEF9D
:1005400096838583528741870E947602F8016387EC
:10055000748785879687108A17868C2F06C0219608
:100560007196CA30D105B1F68FEFDF91CF911F910F
:100570000F9108950E947602613A7F4081059105AE
:1005800008F408958091720190917301865D914005
:100590008135910518F021E020935F0181359105A7
:1005A00018F410925F01089508950E940F0A0F93A6
:1005B0001F93CF93DF93EC0188819981009729F0F5
:1005C0002A813B812617370788F48B016F5F7F4FA5
:1005D0000E944509009761F0998388831B830A83F1
:1005E0002C813D81232B11F4FC01108281E001C09C
:1005F00080E0DF91CF911F910F910895EF92FF92CC
:100600000F931F93CF93DF936115710511F480E071
:1006100023C0FB0101900020E9F73197E61BF70B9F
:10062000DC0114960D911C9115973097A1F07B0178
:10063000EC010E0F1F1FB8010E94D702882339F367
:10064000288139818C819D81B701820F931F0E947F
:100650001D0A1D830C8381E0DF91CF911F910F91C3
:10066000FF90EF900895CF92DF92EF92FF920F9359
:100670001F93CF93DF93CDB7DEB728970FB6F894CB
:10068000DEBF0FBECDBF8C01CB014AE09E012F5FC4
:100690003F4F6901B9010E944F07F6010190002008
:1006A000E9F73197EC19FD09D8011496ED90FC900B
:1006B00015973097B9F0EE0EFF1EB701C8010E94E2
:1006C000D702882381F0F8012081318184819581CE
:1006D000B601820F931F0E941D0AD8011596FC9245
:1006E000EE92149781E028960FB6F894DEBF0FBE05
:1006F000CDBFDF91CF911F910F91FF90EF90DF90D1
:10070000CF900895CF93DF9300D000D000D0CDB725
:10071000DEB71A8219821C821B821E821D8267E04C
:1007200070E0CE0101960E94D70229813A818111A1
:100730000DC02115310519F0C9010E94AD081A82BA
:1007400019821E821D821C821B8209C087E090E0F4
:100750009E838D8368E171E0C9010E941D0A60914A
:10076000700170E0CE0101960E94330360E271E0F7
:10077000CE0101960E94FE0263E271E0CE01019675
:100780000E94FE0288E00E94BF01BC01CE010196DA
:100790000E94330360E271E0CE0101960E94FE02E6
:1007A00069E271E0CE0101960E94FE0289E00E949A
:1007B000BF01BC01CE0101960E94330360E271E0EB
:1007C000CE0101960E94FE026EE271E0CE0101961A
:1007D0000E94FE026091600170E0CE0101960E94CD
:1007E000330360E271E0CE0101960E94FE0265E3F0
:1007F00071E0CE0101960E94FE026091720170913B
:100800007301CE0101960E94330360E271E0CE01D4
:1008100001960E94FE026DE371E0CE0101960E94F6
:10082000FE0260915F0170E0CE0101960E943303E9
:1008300060E271E0CE0101960E94FE0264E471E084
:10084000CE0101960E94FE0260915D0170915E01F1
:10085000CE0101960E9433034D815E8169817A81C8
:100860008AE791E00E948C0042E050E06DE471E084
:100870008AE791E00E948C0089819A810E94AD08EC
:1008800026960FB6F894DEBF0FBECDBFDF91CF9195
:1008900008951F920F920FB60F9211242F933F933A
:1008A0004F935F936F937F938F939F93AF93BF9378
:1008B000EF93FF938AE791E00E940201FF91EF918D
:1008C000BF91AF919F918F917F916F915F914F9168
:1008D0003F912F910F900FBE0F901F9018951F9270
:1008E0000F920FB60F9211242F938F939F93EF9334
:1008F000FF93E0918A01F0918B018081E09190015A
:10090000F091910182FD12C09081809193018F5FDF
:100910008F7320919401821751F0E0919301F0E0E0
:10092000E658FE4F958F8093930101C08081FF911F
:10093000EF919F918F912F910F900FBE0F901F906D
:1009400018951F920F920FB60F9211242F933F9379
:100950008F939F93AF93BF938091550190915601D0
:10096000A0915701B09158013091540123E0230F19
:100970002D3720F40196A11DB11D05C026E8230FD7
:100980000296A11DB11D20935401809355019093AF
:100990005601A0935701B093580180915001909156
:1009A0005101A0915201B09153010196A11DB11DB9
:1009B0008093500190935101A0935201B093530141
:1009C000BF91AF919F918F913F912F910F900FBE4B
:1009D0000F901F90189510927D0110927C0188EE67
:1009E00093E0A0E0B0E080937E0190937F01A0931C
:1009F0008001B09381018AE091E090937B01809324
:100A00007A0185EC90E0909387018093860184ECD5
:100A100090E0909389018093880180EC90E090931E
:100A20008B0180938A0181EC90E090938D018093FB
:100A30008C0182EC90E090938F0180938E0186EC84
:100A400090E0909391018093900110929301109205
:100A500094011092950110929601E7E1F2E0108264
:100A6000719682E0E13CF807D1F70895789484B557
:100A7000826084BD84B5816084BD85B5826085BD9A
:100A800085B5816085BD80916E00816080936E0028
:100A9000109281008091810082608093810080911A
:100AA00081008160809381008091800081608093CB
:100AB00080008091B10084608093B1008091B0008B
:100AC00081608093B00080917A00846080937A0086
:100AD00080917A00826080937A0080917A008160B0
:100AE00080937A0080917A00806880937A001092D7
:100AF000C100E0918A01F0918B0182E08083E09156
:100B00008601F09187011082E0918801F0918901BE
:100B10008FEC808310929201E0918E01F0918F0111
:100B200086E08083E0918C01F0918D01808180616D
:100B30008083E0918C01F0918D01808188608083B9
:100B4000E0918C01F0918D01808180688083E0913B
:100B50008C01F0918D0180818F7D808360E089E040
:100B60000E943A0262E088E00E943A0261E087E077
:100B70000E943A0261E086E00E943A0260916701B9
:100B800086E00E940A0260916B0181E0682787E09D
:100B90000E940A0242E853E064EF71E080E090E0D6
:100BA0000E94820248EE51E068EC70E080E090E044
:100BB0000E9482024AEB52E068EE73E080E090E02F
:100BC0000E9482020E94760201E011E090E4D92E98
:100BD00021E1422E22E0522E612C712C0E947602DD
:100BE0004B015C01C7E1D2E08FE1E82E82E0F82EF4
:100BF00028812223D1F14B855C856D857E85D501C9
:100C0000C401841B950BA60BB70B49815A816B81DC
:100C10007C8184179507A607B707E8F0213019F003
:100C2000223029F00FC0E985FA8509950BC061E0F3
:100C3000F7018081811160E0F70160833197808145
:100C40000E940A028B869C86AD86BE868F85988917
:100C50000196988B8F878D819E8197FD06C02F8589
:100C60003889281739070CF018826196F1E1EF0EE8
:100C7000F11C22E0C13CD20709F0BACF0E947602F3
:100C80006093760170937701809378019093790156
:100C9000D0927C0080917A00806480937A00809169
:100CA0007A0086FDFCCFA091780080917900B0E0B9
:100CB000B82BB0937501A093740125EF31E00E9429
:100CC0000B08A30192010E948407309373012093C3
:100CD000720189E00E94BF01C1E0892B09F4C0E0E4
:100CE000C09371010E9476024B015C0188E00E9472
:100CF000BF01892B39F58091590190915A01A0913A
:100D00005B01B0915C01A5019401281B390B4A0BD2
:100D10005B0BDA01C901853F9140A105B10590F057
:100D20008092590190925A01A0925B01B0925C01AD
:100D300088E00E94BF01892B29F4809170018027EF
:100D40008093700190916F0180917001992319F047
:100D5000811110936E0120916E01222399F0882356
:100D600059F020916C0130916D012F5F3F4F30930E
:100D70006D0120936C0106C010926E0110926D01FE
:100D800010926C0120916C0130916D01213D374032
:100D900044F010936B0110926E0110926D0110924D
:100DA0006C01992321F0811102C010936A01909186
:100DB0006A019923A9F081110BC02091680130913B
:100DC00069012F5F3F4F309369012093680108C08C
:100DD00010926A01109269011092680110926701E5
:100DE0002091680130916901213D374014F0109342
:100DF0006701882321F01092670110936B018091A5
:100E00006601882339F0C11105C0109365010E9465
:100E1000E80110C08091760190917701A09178014E
:100E2000B09179018093610190936201A093630175
:100E3000B093640180916001882331F010927001B9
:100E400010926B0110926001D0916B01DD2321F0B3
:100E500080915F01882381F010926A0110926901EC
:100E600010926801109267011092600110925F0168
:100E700010925E0110925D016091670186E00E9410
:100E80000A026D2F602787E00E940A02809170019C
:100E900080936F01C09366010E948C019FCEBB2797
:100EA0004A3031F4992322F4BDE2909581959F4F09
:100EB0000C945B07BB27FB015527AA27880F991FB6
:100EC000AA1FA41710F0A41B83955051B9F7A05D79
:100ED000AA3308F0A95DA193009779F7B111B193F6
:100EE0001192CB010C947407DC01FC01672F719106
:100EF0007723E1F7329704C07C916D937083629100
:100F0000AE17BF07C8F30895052E97FB1EF4009493
:100F10000E949B0757FD07D00E94DA0707FC03D009
:100F20004EF40C949B0750954095309521953F4F7A
:100F30004F4F5F4F089590958095709561957F4FC5
:100F40008F4F9F4F08952F923F924F925F926F92D3
:100F50007F928F929F92AF92BF92CF92DF92EF9249
:100F6000FF920F931F93CF93DF93CDB7DEB7CA1BCA
:100F7000DB0B0FB6F894DEBF0FBECDBF09942A88F5
:100F8000398848885F846E847D848C849B84AA849D
:100F9000B984C884DF80EE80FD800C811B81AA812A
:100FA000B981CE0FD11D0FB6F894DEBF0FBECDBFF5
:100FB000ED010895A1E21A2EAA1BBB1BFD010DC075
:100FC000AA1FBB1FEE1FFF1FA217B307E407F507F9
:100FD00020F0A21BB30BE40BF50B661F771F881FD5
:100FE000991F1A9469F760957095809590959B016B
:100FF000AC01BD01CF010895A29FB001B39FC00114
:10100000A39F700D811D1124911DB29F700D811D34
:101010001124911D08950E94FC07B7FF0895821BBB
:10102000930B0895EE0FFF1F0590F491E02D0994A6
:10103000CF93DF938230910510F482E090E0E0914D
:10104000C302F091C40220E030E0C0E0D0E030976D
:1010500011F14081518148175907C0F048175907CD
:1010600061F482819381209719F09B838A832BC03E
:101070009093C4028093C30226C02115310519F054
:101080004217530718F49A01BE01DF01EF010280F5
:10109000F381E02DDCCF2115310509F1281B390B37
:1010A0002430310590F412968D919C91139761151F
:1010B000710521F0FB019383828304C09093C402E5
:1010C0008093C302FD01329644C0FD01E20FF31F7D
:1010D00081939193225031092D933C933AC02091F2
:1010E000C1023091C202232B41F4209102013091C0
:1010F00003013093C2022093C1022091000130917C
:1011000001012115310541F42DB73EB7409104018D
:1011100050910501241B350BE091C102F091C202F0
:10112000E217F307A0F42E1B3F0B2817390778F0BE
:10113000AC014E5F5F4F2417350748F04E0F5F1F1D
:101140005093C2024093C1028193919302C0E0E0A8
:10115000F0E0CF01DF91CF9108950F931F93CF93CC
:10116000DF93009709F48CC0FC013297138212823E
:101170000091C3021091C4020115110581F4208170
:101180003181820F931F2091C1023091C202281732
:10119000390779F5F093C202E093C10271C0D8011A
:1011A00040E050E0AE17BF0750F412962D913C91ED
:1011B0001397AD012115310509F1D901F3CF9D0137
:1011C000DA013383228360817181860F971F821732
:1011D000930769F4EC0128813981260F371F2E5FB0
:1011E0003F4F318320838A819B8193838283452B68
:1011F00029F4F093C402E093C30242C01396FC9317
:10120000EE931297ED01499159919E01240F351FDC
:10121000E217F30771F480819181840F951F029684
:1012200011969C938E938281938113969C938E93B7
:101230001297E0E0F0E0D80112968D919C911397FF
:10124000009719F0F8018C01F6CF8D919C919801CF
:101250002E5F3F4F820F931F2091C1023091C20237
:101260002817390769F4309729F41092C4021092B4
:10127000C30202C0138212821093C2020093C10201
:10128000DF91CF911F910F910895A0E0B0E0EBE4C2
:10129000F9E00C94A707EC01009721F4CB010E9420
:1012A0001808B8C0FC01E60FF71F9C012250310955
:1012B000E217F30708F4ACC0D9010D911C91119706
:1012C00006171707B0F00530110508F49FC0C801D4
:1012D00004978617970708F499C002501109061B56
:1012E000170B019311936D937C93CF010E94AD086E
:1012F0008DC05B01A01AB10A4C01800E911EA09115
:10130000C302B091C40240E050E0E12CF12C1097F0
:1013100009F44AC0A815B905D1F56D907C901197D4
:10132000630182E0C80ED11CCA14DB0480F1A30162
:101330004A195B096A0182E0C80ED11C1296BC9062
:1013400012971396AC91B5E0CB16D10440F0B2825F
:10135000A38351834083D9016D937C930AC00E5FB0
:101360001F4FC301800F911FF90191838083EB2DE3
:10137000FA2FE114F10431F0D7011396FC93EE93A8
:10138000129744C0F093C402E093C3023FC08D9112
:101390009C9111974817590708F4AC017D011296EA
:1013A0000D90BC91A02DB3CF8091C1029091C2024B
:1013B00088159905E1F446175707C8F48091000194
:1013C00090910101009741F48DB79EB740910401BF
:1013D00050910501841B950BE817F907C8F4F093A9
:1013E000C202E093C102F901718360830FC0CB0197
:1013F0000E9418087C01009759F0A801BE010E94C4
:10140000140ACE010E94AD08C70104C0CE0102C07B
:1014100080E090E0CDB7DEB7EEE00C94C30781E04A
:1014200090E0F8940C94240AFB01DC0102C00190C6
:101430000D9241505040D8F70895FB01DC01019016
:0C1440000D920020E1F70895F894FFCF12
:10144C000000C50280000000000023018C00BB00DE
:10145C006A01EC00CA00DE005057525F533A20007C
:10146C0020200042544E3A200054583A2000536138
:10147C0066653A2000565F6F75743A2000456D65BD
:10148C00723A200054785F636E743A20000D0A00A3
:107E0000112484B714BE81FFF0D085E080938100F7
:107E100082E08093C00088E18093C10086E0809377
:107E2000C20080E18093C4008EE0C9D0259A86E02C
:107E300020E33CEF91E0309385002093840096BBD3
:107E4000B09BFECF1D9AA8958150A9F7CC24DD24C4
:107E500088248394B5E0AB2EA1E19A2EF3E0BF2EE7
:107E6000A2D0813461F49FD0082FAFD0023811F036
:107E7000013811F484E001C083E08DD089C08234E0
:107E800011F484E103C0853419F485E0A6D080C0E4
:107E9000853579F488D0E82EFF2485D0082F10E0AE
:107EA000102F00270E291F29000F111F8ED06801E7
:107EB0006FC0863521F484E090D080E0DECF843638
:107EC00009F040C070D06FD0082F6DD080E0C81688
:107ED00080E7D80618F4F601B7BEE895C0E0D1E017
:107EE00062D089930C17E1F7F0E0CF16F0E7DF06D8
:107EF00018F0F601B7BEE89568D007B600FCFDCFD4
:107F0000A601A0E0B1E02C9130E011968C91119780
:107F100090E0982F8827822B932B1296FA010C0160
:107F200087BEE89511244E5F5F4FF1E0A038BF0790
:107F300051F7F601A7BEE89507B600FCFDCF97BE46
:107F4000E89526C08437B1F42ED02DD0F82E2BD052
:107F50003CD0F601EF2C8F010F5F1F4F84911BD097
:107F6000EA94F801C1F70894C11CD11CFA94CF0C13
:107F7000D11C0EC0853739F428D08EE10CD085E9AC
:107F80000AD08FE07ACF813511F488E018D01DD067
:107F900080E101D065CF982F8091C00085FFFCCF94
:107FA0009093C60008958091C00087FFFCCF809118
:107FB000C00084FD01C0A8958091C6000895E0E648
:107FC000F0E098E1908380830895EDDF803219F02E
:107FD00088E0F5DFFFCF84E1DECF1F93182FE3DFCA
:107FE0001150E9F7F2DF1F91089580E0E8DFEE27F6
:047FF000FF270994CA
:027FFE00040479
:0400000300007E007B
:00000001FF